{
  "contractName": "ByteArrayExample",
  "abi": [
    {
      "inputs": [],
      "stateMutability": "nonpayable",
      "type": "constructor"
    },
    {
      "inputs": [],
      "name": "getFixedSizeByteArray",
      "outputs": [
        {
          "internalType": "bytes3",
          "name": "",
          "type": "bytes3"
        }
      ],
      "stateMutability": "view",
      "type": "function"
    },
    {
      "inputs": [],
      "name": "getDynamicSizeByteArray",
      "outputs": [
        {
          "internalType": "bytes",
          "name": "",
          "type": "bytes"
        }
      ],
      "stateMutability": "view",
      "type": "function"
    }
  ],
  "bytecode": "0x608060405234801561000f575f80fd5b506261626360e81b5f806101000a81548162ffffff021916908360e81c02179055506040518060400160405280600681526020017f64656667686900000000000000000000000000000000000000000000000000008152506001908161007591906102b5565b50610384565b5f81519050919050565b7f4e487b71000000000000000000000000000000000000000000000000000000005f52604160045260245ffd5b7f4e487b71000000000000000000000000000000000000000000000000000000005f52602260045260245ffd5b5f60028204905060018216806100f657607f821691505b602082108103610109576101086100b2565b5b50919050565b5f819050815f5260205f209050919050565b5f6020601f8301049050919050565b5f82821b905092915050565b5f6008830261016b7fffffffffffffffffffffffffffffffffffffffffffffffffffffffffffffffff82610130565b6101758683610130565b95508019841693508086168417925050509392505050565b5f819050919050565b5f819050919050565b5f6101b96101b46101af8461018d565b610196565b61018d565b9050919050565b5f819050919050565b6101d28361019f565b6101e66101de826101c0565b84845461013c565b825550505050565b5f90565b6101fa6101ee565b6102058184846101c9565b505050565b5b818110156102285761021d5f826101f2565b60018101905061020b565b5050565b601f82111561026d5761023e8161010f565b61024784610121565b81016020851015610256578190505b61026a61026285610121565b83018261020a565b50505b505050565b5f82821c905092915050565b5f61028d5f1984600802610272565b1980831691505092915050565b5f6102a5838361027e565b9150826002028217905092915050565b6102be8261007b565b67ffffffffffffffff8111156102d7576102d6610085565b5b6102e182546100df565b6102ec82828561022c565b5f60209050601f83116001811461031d575f841561030b578287015190505b610315858261029a565b86555061037c565b601f19841661032b8661010f565b5f5b828110156103525784890151825560018201915060208501945060208101905061032d565b8683101561036f578489015161036b601f89168261027e565b8355505b6001600288020188555050505b505050505050565b6102a8806103915f395ff3fe608060405234801561000f575f80fd5b5060043610610034575f3560e01c806315f3351e146100385780635fe2c54f14610056575b5f80fd5b610040610074565b60405161004d9190610152565b60405180910390f35b61005e610088565b60405161006b91906101f5565b60405180910390f35b5f805f9054906101000a900460e81b905090565b60606001805461009790610242565b80601f01602080910402602001604051908101604052809291908181526020018280546100c390610242565b801561010e5780601f106100e55761010080835404028352916020019161010e565b820191905f5260205f20905b8154815290600101906020018083116100f157829003601f168201915b5050505050905090565b5f7fffffff000000000000000000000000000000000000000000000000000000000082169050919050565b61014c81610118565b82525050565b5f6020820190506101655f830184610143565b92915050565b5f81519050919050565b5f82825260208201905092915050565b5f5b838110156101a2578082015181840152602081019050610187565b5f8484015250505050565b5f601f19601f8301169050919050565b5f6101c78261016b565b6101d18185610175565b93506101e1818560208601610185565b6101ea816101ad565b840191505092915050565b5f6020820190508181035f83015261020d81846101bd565b905092915050565b7f4e487b71000000000000000000000000000000000000000000000000000000005f52602260045260245ffd5b5f600282049050600182168061025957607f821691505b60208210810361026c5761026b610215565b5b5091905056fea26469706673582212205c27aff639cb8efee0a4ffd93e03139b59f1bee859f0d74c56f95ba1f96d068d64736f6c63430008150033",
  "immutableReferences": {},
  "source": "// SPDX-License-Identifier: MIT\npragma solidity >=0.4.22 <0.9.0;\n\ncontract ByteArrayExample {\n  bytes3 fixedSizeByteArray;\n  bytes dynamicSizeByteArray;\n  constructor() {\n    // 'abc'\n    fixedSizeByteArray = 0x616263;\n\n    // 'defghi'\n    dynamicSizeByteArray = hex'646566676869';\n  }\n\n  function getFixedSizeByteArray() public view returns (bytes3) {\n    return fixedSizeByteArray;\n  }\n\n  function getDynamicSizeByteArray() public view returns (bytes memory) {\n    return dynamicSizeByteArray;\n  }\n}\n",
  "sourcePath": "/Users/andeladeveloper/Software Architects/Blockchain/hello-world/contracts/ByteArrayExample.sol",
  "compiler": {
    "name": "solc",
    "version": "0.8.21+commit.d9974bed.Emscripten.clang"
  },
  "schemaVersion": "3.4.16",
  "updatedAt": "2024-02-20T15:45:26.897Z",
  "devdoc": {
    "kind": "dev",
    "methods": {},
    "version": 1
  },
  "userdoc": {
    "kind": "user",
    "methods": {},
    "version": 1
  }
}