{
  "contractName": "MappingExample",
  "abi": [
    {
      "inputs": [
        {
          "internalType": "uint256",
          "name": "",
          "type": "uint256"
        }
      ],
      "name": "array",
      "outputs": [
        {
          "internalType": "uint256",
          "name": "",
          "type": "uint256"
        }
      ],
      "stateMutability": "view",
      "type": "function"
    },
    {
      "inputs": [],
      "name": "std1",
      "outputs": [
        {
          "internalType": "string",
          "name": "name",
          "type": "string"
        },
        {
          "internalType": "string",
          "name": "subject",
          "type": "string"
        },
        {
          "internalType": "uint8",
          "name": "marks",
          "type": "uint8"
        }
      ],
      "stateMutability": "view",
      "type": "function"
    },
    {
      "inputs": [],
      "name": "structure",
      "outputs": [
        {
          "internalType": "string",
          "name": "",
          "type": "string"
        },
        {
          "internalType": "string",
          "name": "",
          "type": "string"
        },
        {
          "internalType": "uint256",
          "name": "",
          "type": "uint256"
        }
      ],
      "stateMutability": "nonpayable",
      "type": "function"
    }
  ],
  "bytecode": "0x60806040526040518060a001604052806001815260200160028152602001600381526020016004815260200160058152505f90600561003f929190610051565b5034801561004b575f80fd5b506100ac565b8260058101928215610080579160200282015b8281111561007f578251825591602001919060010190610064565b5b50905061008d9190610091565b5090565b5b808211156100a8575f815f905550600101610092565b5090565b6108cc806100b95f395ff3fe608060405234801561000f575f80fd5b506004361061003f575f3560e01c806338d94193146100435780636c92f46214610073578063912a5bde14610093575b5f80fd5b61005d60048036038101906100589190610422565b6100b3565b60405161006a919061045c565b60405180910390f35b61007b6100cb565b60405161008a939291906104ff565b60405180910390f35b61009b6102bc565b6040516100aa9392919061055d565b60405180910390f35b5f81600581106100c1575f80fd5b015f915090505481565b6060805f6040518060400160405280600481526020017f4a6f686e0000000000000000000000000000000000000000000000000000000081525060055f01908161011591906107c7565b506040518060400160405280600981526020017f4368656d697374727900000000000000000000000000000000000000000000008152506005600101908161015d91906107c7565b50605860056002015f6101000a81548160ff021916908360ff16021790555060055f01600560010160056002015f9054906101000a900460ff168280546101a3906105fa565b80601f01602080910402602001604051908101604052809291908181526020018280546101cf906105fa565b801561021a5780601f106101f15761010080835404028352916020019161021a565b820191905f5260205f20905b8154815290600101906020018083116101fd57829003601f168201915b5050505050925081805461022d906105fa565b80601f0160208091040260200160405190810160405280929190818152602001828054610259906105fa565b80156102a45780601f1061027b576101008083540402835291602001916102a4565b820191905f5260205f20905b81548152906001019060200180831161028757829003601f168201915b505050505091508060ff169050925092509250909192565b6005805f0180546102cc906105fa565b80601f01602080910402602001604051908101604052809291908181526020018280546102f8906105fa565b80156103435780601f1061031a57610100808354040283529160200191610343565b820191905f5260205f20905b81548152906001019060200180831161032657829003601f168201915b505050505090806001018054610358906105fa565b80601f0160208091040260200160405190810160405280929190818152602001828054610384906105fa565b80156103cf5780601f106103a6576101008083540402835291602001916103cf565b820191905f5260205f20905b8154815290600101906020018083116103b257829003601f168201915b505050505090806002015f9054906101000a900460ff16905083565b5f80fd5b5f819050919050565b610401816103ef565b811461040b575f80fd5b50565b5f8135905061041c816103f8565b92915050565b5f60208284031215610437576104366103eb565b5b5f6104448482850161040e565b91505092915050565b610456816103ef565b82525050565b5f60208201905061046f5f83018461044d565b92915050565b5f81519050919050565b5f82825260208201905092915050565b5f5b838110156104ac578082015181840152602081019050610491565b5f8484015250505050565b5f601f19601f8301169050919050565b5f6104d182610475565b6104db818561047f565b93506104eb81856020860161048f565b6104f4816104b7565b840191505092915050565b5f6060820190508181035f83015261051781866104c7565b9050818103602083015261052b81856104c7565b905061053a604083018461044d565b949350505050565b5f60ff82169050919050565b61055781610542565b82525050565b5f6060820190508181035f83015261057581866104c7565b9050818103602083015261058981856104c7565b9050610598604083018461054e565b949350505050565b7f4e487b71000000000000000000000000000000000000000000000000000000005f52604160045260245ffd5b7f4e487b71000000000000000000000000000000000000000000000000000000005f52602260045260245ffd5b5f600282049050600182168061061157607f821691505b602082108103610624576106236105cd565b5b50919050565b5f819050815f5260205f209050919050565b5f6020601f8301049050919050565b5f82821b905092915050565b5f600883026106867fffffffffffffffffffffffffffffffffffffffffffffffffffffffffffffffff8261064b565b610690868361064b565b95508019841693508086168417925050509392505050565b5f819050919050565b5f6106cb6106c66106c1846103ef565b6106a8565b6103ef565b9050919050565b5f819050919050565b6106e4836106b1565b6106f86106f0826106d2565b848454610657565b825550505050565b5f90565b61070c610700565b6107178184846106db565b505050565b5b8181101561073a5761072f5f82610704565b60018101905061071d565b5050565b601f82111561077f576107508161062a565b6107598461063c565b81016020851015610768578190505b61077c6107748561063c565b83018261071c565b50505b505050565b5f82821c905092915050565b5f61079f5f1984600802610784565b1980831691505092915050565b5f6107b78383610790565b9150826002028217905092915050565b6107d082610475565b67ffffffffffffffff8111156107e9576107e86105a0565b5b6107f382546105fa565b6107fe82828561073e565b5f60209050601f83116001811461082f575f841561081d578287015190505b61082785826107ac565b86555061088e565b601f19841661083d8661062a565b5f5b828110156108645784890151825560018201915060208501945060208101905061083f565b86831015610881578489015161087d601f891682610790565b8355505b6001600288020188555050505b50505050505056fea2646970667358221220d1dcc84da1fa3d64c6cf70332e70492027b91f2ff056a81927b14e09d2ccdc2864736f6c63430008150033",
  "immutableReferences": {},
  "source": "// SPDX-License-Identifier: MIT\npragma solidity >=0.4.22 <0.9.0;\n\ncontract MappingExample {\n  uint[5] public array = [uint(1), 2, 3, 4, 5];\n\n  struct student {\n    string name;\n    string subject;\n    uint8 marks;\n  }\n\n  student public std1;\n\n  function structure() public returns(\n    string memory,\n    string memory,\n    uint\n  ) {\n    std1.name = 'John';\n    std1.subject = 'Chemistry';\n    std1.marks = 88;\n    return (std1.name, std1.subject, std1.marks);\n  }\n\n  mapping (address => student) result;\n  address[] student_result;\n}\n",
  "sourcePath": "/Users/andeladeveloper/Software Architects/Blockchain/hello-world/contracts/MappingExample.sol",
  "compiler": {
    "name": "solc",
    "version": "0.8.21+commit.d9974bed.Emscripten.clang"
  },
  "schemaVersion": "3.4.16",
  "updatedAt": "2024-02-20T14:57:52.087Z",
  "devdoc": {
    "kind": "dev",
    "methods": {},
    "version": 1
  },
  "userdoc": {
    "kind": "user",
    "methods": {},
    "version": 1
  }
}