{
  "contractName": "Test",
  "abi": [
    {
      "inputs": [],
      "name": "sum",
      "outputs": [
        {
          "internalType": "uint256",
          "name": "",
          "type": "uint256"
        }
      ],
      "stateMutability": "view",
      "type": "function"
    },
    {
      "inputs": [],
      "name": "var1",
      "outputs": [
        {
          "internalType": "uint256",
          "name": "",
          "type": "uint256"
        }
      ],
      "stateMutability": "view",
      "type": "function"
    },
    {
      "inputs": [],
      "name": "var2",
      "outputs": [
        {
          "internalType": "uint256",
          "name": "",
          "type": "uint256"
        }
      ],
      "stateMutability": "view",
      "type": "function"
    },
    {
      "inputs": [
        {
          "internalType": "uint256",
          "name": "x",
          "type": "uint256"
        },
        {
          "internalType": "uint256",
          "name": "y",
          "type": "uint256"
        }
      ],
      "name": "set",
      "outputs": [],
      "stateMutability": "nonpayable",
      "type": "function"
    },
    {
      "inputs": [],
      "name": "get",
      "outputs": [
        {
          "internalType": "uint256",
          "name": "",
          "type": "uint256"
        }
      ],
      "stateMutability": "view",
      "type": "function"
    }
  ],
  "bytecode": "0x608060405234801561000f575f80fd5b506102608061001d5f395ff3fe608060405234801561000f575f80fd5b5060043610610055575f3560e01c80631ab06ee514610059578063507aff571461007557806367e919b6146100935780636d4ce63c146100b1578063853255cc146100cf575b5f80fd5b610073600480360381019061006e9190610164565b6100ed565b005b61007d610113565b60405161008a91906101b1565b60405180910390f35b61009b610119565b6040516100a891906101b1565b60405180910390f35b6100b961011e565b6040516100c691906101b1565b60405180910390f35b6100d7610127565b6040516100e491906101b1565b60405180910390f35b815f81905550806001819055506001545f5461010991906101f7565b6002819055505050565b60015481565b5f5481565b5f600254905090565b60025481565b5f80fd5b5f819050919050565b61014381610131565b811461014d575f80fd5b50565b5f8135905061015e8161013a565b92915050565b5f806040838503121561017a5761017961012d565b5b5f61018785828601610150565b925050602061019885828601610150565b9150509250929050565b6101ab81610131565b82525050565b5f6020820190506101c45f8301846101a2565b92915050565b7f4e487b71000000000000000000000000000000000000000000000000000000005f52601160045260245ffd5b5f61020182610131565b915061020c83610131565b9250828201905080821115610224576102236101ca565b5b9291505056fea2646970667358221220bceca5cd06296dfef99ff364c839b896a9b332399abd75a5a08e67d9885ec4a364736f6c63430008150033",
  "immutableReferences": {},
  "source": "// SPDX-License-Identifier: MIT\npragma solidity >=0.4.22 <0.9.0;\n\ncontract Test {\n  uint public var1;\n  uint public var2;\n  uint public sum;\n  function set(uint x, uint y) public {\n    var1 = x;\n    var2 = y;\n    sum = var1 + var2;\n  }\n\n  function get() public view returns (uint) {\n    return sum;\n  }\n}\n",
  "sourcePath": "/Users/andeladeveloper/Software Architects/Blockchain/hello-world/contracts/Test.sol",
  "compiler": {
    "name": "solc",
    "version": "0.8.21+commit.d9974bed.Emscripten.clang"
  },
  "schemaVersion": "3.4.16",
  "updatedAt": "2024-02-20T14:57:52.090Z",
  "devdoc": {
    "kind": "dev",
    "methods": {},
    "version": 1
  },
  "userdoc": {
    "kind": "user",
    "methods": {},
    "version": 1
  }
}