{
  "contractName": "Types",
  "abi": [
    {
      "inputs": [],
      "name": "b",
      "outputs": [
        {
          "internalType": "bytes1",
          "name": "",
          "type": "bytes1"
        }
      ],
      "stateMutability": "view",
      "type": "function"
    },
    {
      "inputs": [],
      "name": "int_var",
      "outputs": [
        {
          "internalType": "int32",
          "name": "",
          "type": "int32"
        }
      ],
      "stateMutability": "view",
      "type": "function"
    },
    {
      "inputs": [],
      "name": "str",
      "outputs": [
        {
          "internalType": "string",
          "name": "",
          "type": "string"
        }
      ],
      "stateMutability": "view",
      "type": "function"
    },
    {
      "inputs": [],
      "name": "Enum",
      "outputs": [
        {
          "internalType": "enum Types.my_enum",
          "name": "",
          "type": "uint8"
        }
      ],
      "stateMutability": "pure",
      "type": "function"
    },
    {
      "inputs": [],
      "name": "Array_push",
      "outputs": [
        {
          "internalType": "uint256[]",
          "name": "",
          "type": "uint256[]"
        }
      ],
      "stateMutability": "nonpayable",
      "type": "function"
    },
    {
      "inputs": [],
      "name": "Array_length",
      "outputs": [
        {
          "internalType": "uint256",
          "name": "",
          "type": "uint256"
        }
      ],
      "stateMutability": "view",
      "type": "function"
    },
    {
      "inputs": [],
      "name": "Array_pop",
      "outputs": [
        {
          "internalType": "uint256[]",
          "name": "",
          "type": "uint256[]"
        }
      ],
      "stateMutability": "nonpayable",
      "type": "function"
    }
  ],
  "bytecode": "0x60806040525f805f6101000a81548160ff0219169083151502179055507fffffffffffffffffffffffffffffffffffffffffffffffffffffffffffff14675f60016101000a81548163ffffffff021916908360030b63ffffffff1602179055506040518060400160405280600a81526020017f426c6f636b636861696e0000000000000000000000000000000000000000000081525060019081620000a5919062000417565b507f610000000000000000000000000000000000000000000000000000000000000060025f6101000a81548160ff021916908360f81c02179055506040518060a00160405280600a60ff168152602001601460ff168152602001601e60ff168152602001602860ff168152602001603260ff1681525060039060056200012d92919062000141565b503480156200013a575f80fd5b50620004fb565b828054828255905f5260205f2090810192821562000183579160200282015b8281111562000182578251829060ff1690559160200191906001019062000160565b5b50905062000192919062000196565b5090565b5b80821115620001af575f815f90555060010162000197565b5090565b5f81519050919050565b7f4e487b71000000000000000000000000000000000000000000000000000000005f52604160045260245ffd5b7f4e487b71000000000000000000000000000000000000000000000000000000005f52602260045260245ffd5b5f60028204905060018216806200022f57607f821691505b602082108103620002455762000244620001ea565b5b50919050565b5f819050815f5260205f209050919050565b5f6020601f8301049050919050565b5f82821b905092915050565b5f60088302620002a97fffffffffffffffffffffffffffffffffffffffffffffffffffffffffffffffff826200026c565b620002b586836200026c565b95508019841693508086168417925050509392505050565b5f819050919050565b5f819050919050565b5f620002ff620002f9620002f384620002cd565b620002d6565b620002cd565b9050919050565b5f819050919050565b6200031a83620002df565b62000332620003298262000306565b84845462000278565b825550505050565b5f90565b620003486200033a565b620003558184846200030f565b505050565b5b818110156200037c57620003705f826200033e565b6001810190506200035b565b5050565b601f821115620003cb5762000395816200024b565b620003a0846200025d565b81016020851015620003b0578190505b620003c8620003bf856200025d565b8301826200035a565b50505b505050565b5f82821c905092915050565b5f620003ed5f1984600802620003d0565b1980831691505092915050565b5f620004078383620003dc565b9150826002028217905092915050565b6200042282620001b3565b67ffffffffffffffff8111156200043e576200043d620001bd565b5b6200044a825462000217565b6200045782828562000380565b5f60209050601f8311600181146200048d575f841562000478578287015190505b620004848582620003fa565b865550620004f3565b601f1984166200049d866200024b565b5f5b82811015620004c6578489015182556001820191506020850194506020810190506200049f565b86831015620004e65784890151620004e2601f891682620003dc565b8355505b6001600288020188555050505b505050505050565b6106e580620005095f395ff3fe608060405234801561000f575f80fd5b506004361061007b575f3560e01c80634df7e3d0116100595780634df7e3d0146100d957806399c33a80146100f7578063c15bae8414610115578063d2d47667146101335761007b565b8063051845ea1461007f578063065f60621461009d5780632a3db8b2146100bb575b5f80fd5b610087610151565b6040516100949190610420565b60405180910390f35b6100a56101cc565b6040516100b29190610420565b60405180910390f35b6100c3610297565b6040516100d0919061045b565b60405180910390f35b6100e16102a9565b6040516100ee91906104ae565b60405180910390f35b6100ff6102bb565b60405161010c91906104d6565b60405180910390f35b61011d6102cc565b60405161012a9190610579565b60405180910390f35b61013b610358565b604051610148919061060c565b60405180910390f35b6060600380548061016557610164610625565b5b600190038181905f5260205f20015f9055905560038054806020026020016040519081016040528092919081815260200182805480156101c257602002820191905f5260205f20905b8154815260200190600101908083116101ae575b5050505050905090565b60606003603c908060018154018082558091505060019003905f5260205f20015f909190919091505560036046908060018154018082558091505060019003905f5260205f20015f909190919091505560036050908060018154018082558091505060019003905f5260205f20015f9091909190915055600380548060200260200160405190810160405280929190818152602001828054801561028d57602002820191905f5260205f20905b815481526020019060010190808311610279575b5050505050905090565b5f60019054906101000a900460030b81565b60025f9054906101000a900460f81b81565b5f8060038054905090508091505090565b600180546102d99061067f565b80601f01602080910402602001604051908101604052809291908181526020018280546103059061067f565b80156103505780601f1061032757610100808354040283529160200191610350565b820191905f5260205f20905b81548152906001019060200180831161033357829003601f168201915b505050505081565b5f6002905090565b5f81519050919050565b5f82825260208201905092915050565b5f819050602082019050919050565b5f819050919050565b61039b81610389565b82525050565b5f6103ac8383610392565b60208301905092915050565b5f602082019050919050565b5f6103ce82610360565b6103d8818561036a565b93506103e38361037a565b805f5b838110156104135781516103fa88826103a1565b9750610405836103b8565b9250506001810190506103e6565b5085935050505092915050565b5f6020820190508181035f83015261043881846103c4565b905092915050565b5f8160030b9050919050565b61045581610440565b82525050565b5f60208201905061046e5f83018461044c565b92915050565b5f7fff0000000000000000000000000000000000000000000000000000000000000082169050919050565b6104a881610474565b82525050565b5f6020820190506104c15f83018461049f565b92915050565b6104d081610389565b82525050565b5f6020820190506104e95f8301846104c7565b92915050565b5f81519050919050565b5f82825260208201905092915050565b5f5b8381101561052657808201518184015260208101905061050b565b5f8484015250505050565b5f601f19601f8301169050919050565b5f61054b826104ef565b61055581856104f9565b9350610565818560208601610509565b61056e81610531565b840191505092915050565b5f6020820190508181035f8301526105918184610541565b905092915050565b7f4e487b71000000000000000000000000000000000000000000000000000000005f52602160045260245ffd5b600381106105d7576105d6610599565b5b50565b5f8190506105e7826105c6565b919050565b5f6105f6826105da565b9050919050565b610606816105ec565b82525050565b5f60208201905061061f5f8301846105fd565b92915050565b7f4e487b71000000000000000000000000000000000000000000000000000000005f52603160045260245ffd5b7f4e487b71000000000000000000000000000000000000000000000000000000005f52602260045260245ffd5b5f600282049050600182168061069657607f821691505b6020821081036106a9576106a8610652565b5b5091905056fea26469706673582212209133aec6f59935847fbe50ce7f87c34fe0263600b6401e1485f83bc978e2f63c64736f6c63430008150033",
  "immutableReferences": {},
  "source": "// SPDX-License-Identifier: MIT\npragma solidity >=0.4.22 <0.9.0;\n\ncontract Types {\n  bool private boolean = false;\n\n  int32 public int_var = -60313;\n\n  string public str = 'Blockchain';\n\n  bytes1 public b = 'a';\n\n  uint[] data = [10, 20, 30, 40, 50];\n\n  enum my_enum { geeks_, _for, _geeks }\n\n  function Enum() public pure returns (my_enum) {\n    return my_enum._geeks;\n  }\n\n  function Array_push() public returns(uint[] memory) {\n    data.push(60);\n    data.push(70);\n    data.push(80);\n    return data;\n  }\n\n  function Array_length() public view returns(uint) {\n    uint x = data.length;\n    return x;\n  }\n\n  function Array_pop() public returns(uint[] memory) {\n    data.pop();\n    return data;\n  }\n}\n",
  "sourcePath": "/Users/andeladeveloper/Software Architects/Blockchain/hello-world/contracts/Types.sol",
  "compiler": {
    "name": "solc",
    "version": "0.8.21+commit.d9974bed.Emscripten.clang"
  },
  "schemaVersion": "3.4.16",
  "updatedAt": "2024-02-20T15:09:22.807Z",
  "devdoc": {
    "kind": "dev",
    "methods": {},
    "version": 1
  },
  "userdoc": {
    "kind": "user",
    "methods": {},
    "version": 1
  }
}